:020000040800F2
:1000000000000120DD0D00082D0E00082D0E000857
:100010002D0E00082D0E00082D0E00080000000017
:100020000000000000000000000000002D0E00088D
:100030002D0E0008000000002D0E00082D0E0008F7
:10004000000000002D0E00082D0E00082D0E0008E7
:100050002D0E00082D0E0008630C00086F0C000820
:100060002D0E00082D0E00082D0E000800000000C7
:100070000000000000000000000000000000000080
:1000800000000000000000002D0E0008000000002D
:100090000000000000000000000000002D0E00081D
:1000A0002D0E00082D0E00082D0E00082D0E000844
:1000B0002D0E00082D0E0008000000002D0E000877
:1000C0002D0E00082D0E00082D0E00082D0E000824
:1000D0002D0E0008000000000000000000000000DD
:1000E0002D0E00082D0E00082D0E00080000000047
:1000F0000000000000000000000000000000000000
:10010000000000002D0E0008000000002D0E000869
:1001100000000000000000000000000000000000DF
:1001200000000000000000000000000000000000CF
:1001300000000000000000000000000000000000BF
:100140000000000000000000000000002D0E00086C
:10015000000000000000000000000000000000009F
:100160002D0E00082D0E0008000000000000000009
:10017000000000000000000000000000000000007F
:10018000000000002D0E000800000000000000002C
:040190002D0E000828
:1001940010B5054C237833B9044B13B10448AFF3BD
:1001A40000800123237010BD2C04002000000000F7
:1001B400940F000808B5034B1BB103490348AFF380
:1001C400008008BD0000000030040020940F0008E7
:1001D40080B483B000AF7860084611461A460346DF
:1001E400FB700B46BB7013467B70454B1A6B7B78D8
:1001F400012101FA03F3424913430B63BB78002B3B
:1002040016D07B681A68FB785B00012101FA03F3BE
:100214001A437B681A607B681A68FB785B000133B9
:10022400012101FA03F3DB431A407B681A6016E0EC
:100234007B681A68FB785B00012101FA03F3DB4356
:100244001A407B681A607B681A68FB785B0001338C
:10025400012101FA03F3DB431A407B681A603B7CFB
:10026400002B24D0BB78002B0AD07B685A68FB781B
:10027400012101FA03F3DB431A407B685A6039E039
:100284007B68DA68FB785B00012101FA03F31A4307
:100294007B68DA607B68DA68FB785B0001330121F4
:1002A40001FA03F3DB431A407B68DA6022E0BB788F
:1002B400002B09D07B685A68FB78012101FA03F30B
:1002C4001A437B685A6015E07B68DA68FB785B0048
:1002D400012101FA03F3DB431A407B68DA607B688F
:1002E400DA68FB785B000133012101FA03F31A4356
:1002F4007B68DA6000BF0C37BD465DF8047B70474D
:100304000038024080B483B000AF78600B46FB70C5
:100314001346BB707B681A68FB785B00012101FA05
:1003240003F31340002B23D07B681A68FB785B002F
:100334000133012101FA03F31340002B18D1BB78D8
:10034400002B09D07B685A69FB78012101FA03F379
:100354001A437B685A6109E07B685A69FB7801217A
:1003640001FA03F3DB431A407B685A61002300E07F
:10037400012318460C37BD465DF8047B704780B4F2
:1003840085B000AF78600B46FB707B681A68FB7819
:100394005B00012101FA03F31340002B0AD07B68B0
:1003A4001A68FB785B000133012101FA03F313405F
:1003B400002B0AD17B681B69FA78012101FA02F249
:1003C4001340FB60FB68DBB200E0022318461437DD
:1003D400BD465DF8047B704780B582B002AF01234F
:1003E40000930023012201211A48FFF7F1FE0123A3
:1003F40000930023012202211648FFF7E9FE01239E
:1004040000930023012203211248FFF7E1FE012398
:1004140000930023012204210E48FFF7D9FE012393
:1004240000930123002200210B48FFF7D1FE012392
:1004340000930123002201210748FFF7C9FE002190
:10044400422000F00BF80121422000F007F800BF21
:10045400BD4680BD000002400004024080B485B067
:1004640000AF03460A46FB711346BB71734B5B6CCA
:10047400724A43F480435364714B1A68BB79012177
:1004840001FA03F36E4913430B606D4BDA68BB79D1
:10049400012101FA03F36A491343CB60694B1A68DB
:1004A400BB790633012101FA03F3664913430B6058
:1004B400BB79032B04D80023BB60BB79FB6022E02B
:1004C400BB79032B08D9BB79072B05D80123BB6063
:1004D400BB79043BFB6016E0BB79072B08D9BB79D9
:1004E4000B2B05D80223BB60BB79083BFB600AE0F9
:1004F400BB790B2B07D9BB790F2B04D80323BB6023
:10050400BB790C3BFB60FB79412B02D0422B48D0DA
:100514008EE04D4ABB68023352F82320FB689B00EF
:10052400012101FA03F3DB4347491A40BB68023354
:1005340041F82320444ABB68023352F82320FB6865
:100544009B000133012101FA03F3DB433E491A40C6
:10055400BB68023341F823203B4ABB68023352F89C
:100564002320FB689B000233012101FA03F3DB43E0
:1005740035491A40BB68023341F82320324ABB682C
:10058400023352F82320FB689B000333012101FA54
:1005940003F3DB432C491A40BB68023341F82320A0
:1005A40046E0294ABB68023352F82320FB689B00CB
:1005B400012101FA03F324491A43BB68023341F8C9
:1005C4002320214ABB68023352F82320FB689B0096
:1005D4000133012101FA03F3DB431B491A40BB68D1
:1005E400023341F82320184ABB68023352F823200F
:1005F400FB689B000233012101FA03F3DB43124938
:100604001A40BB68023341F823200F4ABB68023307
:1006140052F82320FB689B000333012101FA03F302
:10062400DB4309491A40BB68023341F8232000BF69
:1006340000BF1437BD465DF8047B704700380240A4
:10064400003C014000E100E00038014080B584B086
:1006540000AF0021B648FFF792FE0346FB7201216A
:10066400B448FFF78CFE0346BB720221B148FFF782
:1006740086FE03467B720321AE48FFF780FE0346E5
:100684003B720421AB48FFF77AFE0346FB71FB7A09
:10069400002B40F04981FB79002B1DD13B7A002BC4
:1006A4001AD17B7A002B17D1BB7A002B14D10122EB
:1006B4000121A048FFF726FE002202219D48FFF7F2
:1006C40021FE002203219B48FFF71CFE0022042187
:1006D4009848FFF717FE27E1FB79002B1DD13B7AE1
:1006E400002B1AD17B7A002B17D1BB7A002B14D0A4
:1006F400002201218F48FFF705FE012202218D48C7
:10070400FFF700FE002203218A48FFF7FBFD0022C9
:1007140004218848FFF7F6FD06E1FB79002B1DD183
:100724003B7A002B1AD17B7A002B17D0BB7A002B93
:1007340014D1012201217F48FFF7E4FD01220221A7
:100744007C48FFF7DFFD002203217A48FFF7DAFD3A
:10075400002204217748FFF7D5FDE5E0FB79002B63
:100764001DD13B7A002B1AD17B7A002B17D0BB7A90
:10077400002B14D0002201216E48FFF7C3FD002294
:1007840002216C48FFF7BEFD012203216948FFF7EF
:10079400B9FD002204216748FFF7B4FDC4E0FB79EA
:1007A400002B1DD13B7A002B1AD07B7A002B17D15A
:1007B400BB7A002B14D1012201215E48FFF7A2FD70
:1007C400002202215B48FFF79DFD012203215948C5
:1007D400FFF798FD002204215648FFF793FDA3E09C
:1007E400FB79002B1DD13B7A002B1AD07B7A002B8E
:1007F40017D1BB7A002B14D0002201214D48FFF7FA
:1008040081FD012202214B48FFF77CFD01220321D7
:100814004848FFF777FD002204214648FFF772FDA0
:1008240082E0FB79002B1DD13B7A002B1AD07B7A16
:10083400002B17D0BB7A002B14D1012201213D4893
:10084400FFF760FD012202213A48FFF75BFD012218
:1008540003213848FFF756FD002204213548FFF7ED
:1008640051FD61E0FB79002B1DD13B7A002B1AD09E
:100874007B7A002B17D0BB7A002B14D000220121E5
:100884002C48FFF73FFD002202212A48FFF73AFDDA
:10089400002203212748FFF735FD012204212548C2
:1008A400FFF730FD40E0FB79002B1DD03B7A002B95
:1008B4001AD17B7A002B17D1BB7A002B14D10122D9
:1008C40001211C48FFF71EFD002202211948FFF7F1
:1008D40019FD002203211748FFF714FD012204210A
:1008E4001448FFF70FFD1FE0FB79002B1CD03B7A67
:1008F400002B19D17B7A002B16D1BB7A002B13D095
:10090400002201210B48FFF7FDFC002202210948C7
:10091400FFF7F8FC002203210648FFF7F3FC00224E
:1009240004210448FFF7EEFC0023FB6007E000BF4E
:100934000004024000000240FB680133FB60FB68D6
:100944004CF24F329342F7DD00BF1037BD4680BDF5
:1009540080B584B000AF0121B648FFF710FD03460F
:10096400FB720121B448FFF70AFD0346BB72022162
:10097400B148FFF704FD03467B720321AE48FFF73D
:10098400FEFC03463B720421AB48FFF7F8FC034628
:10099400FB71FB7A002B40F04981FB79002B1DD1C0
:1009A4003B7A002B1AD17B7A002B17D1BB7A002B10
:1009B40014D000220121A048FFF7A4FC0022022148
:1009C4009D48FFF79FFC002203219B48FFF79AFCF8
:1009D400002204219848FFF795FC27E1FB79002BBE
:1009E4001DD13B7A002B1AD17B7A002B17D0BB7A0E
:1009F400002B14D1012201218F48FFF783FC002230
:100A040002218D48FFF77EFC002203218A48FFF76C
:100A140079FC002204218848FFF774FC06E1FB7985
:100A2400002B1DD13B7A002B1AD17B7A002B17D0D7
:100A3400BB7A002B14D0002201217F48FFF762FC0F
:100A4400012202217C48FFF75DFC002203217A4841
:100A5400FFF758FC002204217748FFF753FCE5E038
:100A6400FB79002B1DD13B7A002B1AD07B7A002B0B
:100A740017D1BB7A002B14D1012201216E48FFF754
:100A840041FC012202216C48FFF73CFC00220321B7
:100A94006948FFF737FC002204216748FFF732FC5E
:100AA400C4E0FB79002B1DD13B7A002B1AD07B7A52
:100AB400002B17D1BB7A002B14D0002201215E48F1
:100AC400FFF720FC002202215B48FFF71BFC0122F8
:100AD40003215948FFF716FC002204215648FFF76A
:100AE40011FCA3E0FB79002B1DD13B7A002B1AD01B
:100AF4007B7A002B17D0BB7A002B14D10122012161
:100B04004D48FFF7FFFB002202214B48FFF7FAFB99
:100B1400012203214848FFF7F5FB0022042146483F
:100B2400FFF7F0FB82E0FB79002B1DD13B7A002B11
:100B34001AD07B7A002B17D0BB7A002B14D000225A
:100B440001213D48FFF7DEFB012202213A48FFF76D
:100B5400D9FB012203213848FFF7D4FB00220421EA
:100B64003548FFF7CFFB61E0FB79002B1DD03B7AC2
:100B7400002B1AD17B7A002B17D1BB7A002B14D10E
:100B8400012201212C48FFF7BDFB012202212A4842
:100B9400FFF7B8FB012203212748FFF7B3FB00222C
:100BA40004212548FFF7AEFB40E0FB79002B1DD064
:100BB4003B7A002B1AD17B7A002B17D1BB7A002BFE
:100BC40014D0002201211C48FFF79CFB00220221C3
:100BD4001948FFF797FB002203211748FFF792FB00
:100BE400012204211448FFF78DFB1FE0FB79002B41
:100BF4001CD13B7A002B19D17B7A002B16D1BB7AFE
:100C0400002B13D1012201210B48FFF77BFB0022AB
:100C140002210948FFF776FB002203210648FFF76B
:100C240071FB012204210448FFF76CFB0023FB60E5
:100C340007E000BF0004024000000240FB680133EB
:100C4400FB60FB684CF24F329342F7DD00BF103774
:100C5400BD4680BD80B500AFFFF7BEFBFEE780B5A3
:100C640000AFFFF7F3FC00BF80BD80B500AFFFF716
:100C74006FFE00BF80BD000080B500AF164BD3F8F7
:100C84008830154A43F47003C2F88830134B1B684C
:100C9400124A43F001031360104B00229A600F4B79
:100CA4001B680E4A23F0847323F4803313600B4BC8
:100CB4000B4A5A60094B1B68084A23F480231360CB
:100CC400064B0022DA6000F00DF8034B4FF000628F
:100CD4009A6000BF80BD00BF00ED00E00038024014
:100CE4001030002480B483B000AF00237B60002365
:100CF4003B60354B1B68344A43F480331360324BFA
:100D04001B6803F400333B607B6801337B603B6802
:100D1400002B03D17B68B3F5A04FF0D12A4B1B689D
:100D240003F40033002B02D001233B6001E00023D5
:100D34003B603B68012B40D1234B1B6C224A43F0A0
:100D440080531364214B1B68204A43F440431360CF
:100D54001D4B1D4A9B6893601B4B1B4A9B68936009
:100D6400194B9B68184A43F480539360164B184AF6
:100D74005A60154B1B68144A43F08073136000BF1C
:100D8400114B1B6803F00073002BF9D0114B40F298
:100D940002721A600C4B9B680B4A23F003039360A6
:100DA400094B9B68084A43F00203936000BF064B5B
:100DB4009B6803F00C03082BF9D100BF0C37BD4628
:100DC4005DF8047B704700BF0038024000700040AB
:100DD40019544107003C02400D4885460D480E4910
:100DE4000E4A002302E0D458C4500433C4188C4281
:100DF400F9D30B4A0B4C002301E013600432A242E6
:100E0400FBD3FFF739FF00F011F8FFF723FFFEE7EC
:100E140000000120000000202C040020BC0F00086A
:100E24002C0400206C040020FEE7000070B50D4E79
:100E34000D4D761BB61006D00024013455F8043B42
:100E44009847A642F9D1094E094D761B00F0A0F847
:100E5400B61006D00024013455F8043B9847A64246
:100E6400F9D170BDB00F0008B00F0008B80F00082A
:100E7400B00F0008024B13B1024800F005B87047E8
:100E840000000000990E0008002301461A46184687
:100E940000F01EB838B50A4C0A4D641BA4100AD0E1
:100EA40004F18043013B05EB8305013C55F804390B
:100EB4009847002CF9D1BDE8384000F06FB800BF66
:100EC400BC0F0008B80F0008704700BF704700BF90
:100ED4002DE9F8432B4D0646286898460F4691465F
:100EE400FFF7F2FF284B1C68D4F84831002B3DD0A3
:100EF4005A681F2A0DDC02F1010C16BB0232C3F83A
:100F040004C0286843F82270FFF7E0FF0020BDE822
:100F1400F8831E4B7BB34FF4C870AFF300800346D5
:100F240048B3D4F848210021C0E900214FF0010C56
:100F3400C4F848010A46C0F88811C0F88C11002E84
:100F4400DCD003EB82010124C1F88890D3F8880136
:100F540094402043022EC3F88801C1F80881CDD102
:100F6400D3F88C110C43C3F88C41C7E704F5A6737E
:100F7400C4F84831BCE72868FFF7A8FF4FF0FF30FA
:100F8400C5E700BF28040020AC0F000800000000E3
:100F9400F8B500BFF8BC08BC9E467047F8B500BF62
:080FA400F8BC08BC9E46704732
:040FAC000000002021
:080FB000790E0008B9010008E8
:040FB8009501000897
:100FBC0000000000EC02002054030020BC030020C1
:100FCC000000000000000000000000000000000015
:100FDC000000000000000000000000000000000005
:100FEC0000000000000000000000000000000000F5
:100FFC0000000000000000000000000000000000E5
:10100C0000000000000000000000000000000000D4
:10101C0000000000000000000000000000000000C4
:10102C0000000000000000000000000000000000B4
:10103C0000000000000000000000000000000000A4
:10104C000000000000000000000000000000000094
:10105C000000000000000000010000000000000083
:10106C000E33CDAB34126DE6ECDE05000B00000048
:10107C000000000000000000000000000000000064
:10108C000000000000000000000000000000000054
:10109C000000000000000000000000000000000044
:1010AC000000000000000000000000000000000034
:0C13DC0000000000000000004804002099
:0400000508000DDD05
:00000001FF
